:020000022000DC
:1060000000000120B5620200DD620200C1780300D9
:10601000E1620200E3620200E562020000000000AB
:10602000000000000000000000000000E762020025
:10603000E962020000000000EB620200ED62020073
:1060400035B9030011F70300C9C10300B1BD030056
:10605000EF620200EF62020005A1030045A5030004
:10606000EF620200EF620200F10D0400EF62020035
:10607000EF620200EF620200EF620200EF620200D4
:10608000A1C00300B9940300EF620200EF620200B6
:10609000CD000400EF620200ED9A0300EF620200FF
:1060A000EF620200EF620200EF620200EF620200A4
:1060B00031A50300EF6202000000000000000000B4
:1060C000EF620200EF620200EF620200EF62020084
:1060D000EF620200EF620200EF62020000000000C7
:1060E00000000000000000000000000000000000B0
:1060F00000000000000000000000000000000000A0
:10610000000000000000000000000000000000008F
:10611000000000000000000000000000000000007F
:10612000000000000000000000000000000000006F
:10613000000000000000000000000000000000005F
:10614000000000000000000000000000000000004F
:10615000000000000000000000000000000000003F
:10616000000000000000000000000000000000002F
:10617000000000000000000000000000000000001F
:10618000000000000000000000000000000000000F
:1061900000000000000000000000000000000000FF
:1061A00000000000000000000000000000000000EF
:1061B00000000000000000000000000000000000DF
:1061C00000000000000000000000000000000000CF
:1061D00000000000000000000000000000000000BF
:1061E00000000000000000000000000000000000AF
:1061F000000000000000000000000000000000009F
:1062000010B5054C237833B9044B13B10448AFF3F0
:1062100000800123237010BDA82E00200000000084
:10622000007F040008B5034B1BB103490348AFF3DB
:10623000008008BD00000000AC2E0020007F04009C
:10624000154B002B08BF134B9D46A3F5803A002148
:106250008B460F461348144A121A1AF055FE0F4B7C
:10626000002B00D098470E4B002B00D09847002001
:10627000002104000D000D48002802D00C48AFF3A7
:1062800000801AF001FE2000290005F073FF1AF0CB
:10629000E7FD00BF00000800000001200000000032
:1062A00000000000A82E0020AC68002000000000C4
:1062B000000000000649074A074B9B1A03DD043B18
:1062C000C858D050FBDC16F0A1FDFFF7B9FF000065
:1062D000B4800400C82A0020A82E0020FEE7FEE7B4
:1062E000FEE7FEE7FEE7FEE7FEE7FEE7FEE7FEE786
:1062F00008B5B62000F06EFFE0B9002310E00E49AB
:1063000031F833000D4A22F8330001EBC30148880D
:1063100002EBC302508088889080C988D180013305
:10632000032BECDD064B00221A705A709A70DA705B
:1063300004221A7108BD00BFFC350400D02A0020D9
:10634000C82A0020704708B503F00AF8002112207F
:1063500003F0F3FB08BD000070B582B0ADF8040097
:106360000E4B1D680E4B1B681D431F2401E0013CB2
:1063700064B2002C0DDB25FA04F313F0010FF6D004
:10638000E6B20199304607F063FD80B20128EED0F5
:1063900000E00026304602B070BD00BFD0520020A1
:1063A0008452002010B504460146094808F06AF9F5
:1063B00034B102F07FFE00B110BD02F08DFFFBE7AB
:1063C00002F078FE0028F7D002F086FFF4E700BF65
:1063D000AC36040070B50446082A0AD001390A29EF
:1063E0004FD8DFE801F0A656676E757C838A9198D6
:1063F0009F0083791B090C39052942D8DFE801F099
:106400000323171A1D2026260225A2787AB33BB350
:10641000A37913F0010F19D0474808F033F9A37995
:106420006FF30713A371284606F0E3F829E0262648
:106430000125EAE727261125E7E726260425E4E7D4
:1064400027261425E1E727261225DEE73B4808F03A
:1064500019F9284607F0E8F8304605F0FBFF10E090
:10646000374808F00FF9284606F0C3F809E04BB1A9
:10647000344808F007F9284607F0DEF8304606F001
:106480008BF870BD2E4808F0FDF8284606F0B9F8E4
:10649000F7E78378002BF4D002F00CFE80F00100C7
:1064A000C0B2FFF77FFF02F005FE0146264808F064
:1064B000E9F8E6E78378002BE3D0012002F00AFE3A
:1064C000DFE78378002BDCD0032002F003FED8E75F
:1064D0008378002BD5D0032002F078FED1E78378B3
:1064E000002BCED0042002F0F5FDCAE78378002B04
:1064F000C7D0042002F06AFEC3E78378002BC0D027
:10650000052002F0E7FDBCE78378002BB9D0052019
:1065100002F05CFEB5E78378002BB2D0022002F0D7
:10652000D9FDAEE78378002BABD0022002F04EFEFF
:10653000A7E700F079F9A4E7C4360400E8360400C0
:1065400008370400243704004437040070B584B0D1
:10655000044600680290A388ADF80C30A5792D0997
:1065600004AB13E90300009089B249B1BDF80020E3
:106570004FF6FF739A4201D0002302E0012300E0AE
:1065800001231E461BB10026304604B070BD04AB8B
:1065900013E9030006F0A6FF83B24BB3C0F3033345
:1065A000012B31D90E3303F00F03012B35D8C0F383
:1065B000072303F0F003202B77D0C0F3032212014E
:1065C000C3B2EB2BE0D19DF80A60002E77D01046C5
:1065D00006F00FF8002DD7D0A37913F0010F67D084
:1065E0003E4808F04FF8A3796FF30713A371CBE788
:1065F0000298FFF7B1FE029907F010FC00F11803B2
:10660000DBB2042BCAD9BFE7C0B2EA280AD0E82817
:1066100028D0E92834D0682840D0204605F00AF96F
:106620000646B1E79DF80A30BBB106F0DBFF10F07B
:10663000220F09D110F0080F06D110F0800F03D1FE
:10664000274B29221A7002E0254B35221A70244B61
:10665000187805F0FFFE012696E7214B187805F023
:106660009BFFF8E79DF80A3033B1072006F0DCFF06
:1066700007F00EF8012687E7072006F0DDFFF7E7B1
:106680009DF80A3033B10F2006F0CEFF07F000F876
:10669000012679E70F2006F0CFFFF7E79DF80A60A3
:1066A000002EBAD002F0FAFC6EE7C0F3032287E7AF
:1066B0000C4807F0E7FF282005F0CCFE64E7104601
:1066C00005F09FFF0DB901265EE7074807F0DAFFE6
:1066D000282005F061FF012656E700BFC4360400FC
:1066E000C42E0020E83604002437040084B06B4632
:1066F00083E8030093E80300029089B249B1BDF832
:1067000008204FF6FF739A4201D0002302E00123D4
:1067100000E0012313B9024B01225A7104B0704703
:10672000582B002070477047704700207047704713
:106730000FB400B583B004A951F8040B019107F020
:10674000B7FF03B05DF804EB04B0704708B501462D
:10675000002016F0EFF908BD38B5054601EB410100
:106760004C0004F1100003F099F8287004F11100B6
:1067700003F094F8687004F1120003F08FF8A87029
:1067800004F1130003F08AF8E87004F1140003F038
:1067900085F8287104F1150003F080F868712978F4
:1067A000014807F06FFF38BD5437040038B505467F
:1067B00001EB41014C00017804F1100003F073F883
:1067C000697804F1110003F06EF8A97804F1120061
:1067D00003F069F8E97804F1130003F064F829790B
:1067E00004F1140003F05FF8697904F1150003F077
:1067F0005AF82978014807F045FF38BD743704007E
:1068000008B5FFF7D3FF08BD08B53F2003F046F8F1
:1068100008BD08B501463F2003F045F808BD08B59E
:10682000FFF7F7FF08BD704708B5FFF7FCFF4FF60D
:10683000ED61002003F048F80021022003F033F856
:106840000021032003F02FF80021042003F02BF88F
:106850000021052003F027F802F0FAFB00213E207A
:1068600003F021F800213F2003F01DF8FFF75BFF44
:10687000FFF75DFF08BD08B5002003F019F84FF6DB
:10688000ED63984214BF0020012008BDF0B583B02D
:10689000074600262BE0C0B2B84223D00134E4B250
:1068A0000D2C22D845FA04F313F0010FF6D08DF821
:1068B00004408DF805600199002007F0C9FA83B201
:1068C000BB420FD0C0F3072313F0F003E3D0102B2B
:1068D000E1D0202BDFD0302BDDD0A02BDBD0B02BB4
:1068E000DCD1D8E7012003B0F0BD0136F6B2042EAA
:1068F00005D8304602F0F8FD05460024D0E7002018
:10690000F1E710B504462C20FFF7C0FF00B910BD19
:106910002046FFF7BBFFFAE708B502F07FFB08BD92
:1069200010B5FFF7A8FFB8B14FF0A043D3F810356A
:1069300013F0806F1CD0114807F0A4FE02F026FE71
:1069400004460F4807F09EFE64B92A20FFF7D9FFDE
:1069500088B1FFF769FF0EE00A4807F093FEFFF7E2
:1069600063FFE1E7084807F08DFE03F0D9F8ECE794
:10697000064807F087FEFFF7CFFF10BDAC370400D5
:10698000BC37040094370400C4370400E037040027
:1069900008B5122003F0E2F80021122003F0CDF830
:1069A00008BD08B510F0020F04D00121122003F039
:1069B000C4F808BD0021122003F0BFF8F9E700F584
:1069C00090531A6841F20423C058824214BF002039
:1069D0000120704741F20423C358013303F07F03C1
:1069E00000F590500068834214BF002001207047DA
:1069F00010B504464FF4905200211AF085FA002396
:106A000041F20422A35004F59054236010BD2DE9F7
:106A1000F04180460E46FFF7DDFF00BB41F2042344
:106A200058F803C00CEBCC07344608EB8707203638
:106A30003D4620686168A268E3680FC510342F46A0
:106A4000B442F5D1206828600CF1010C0CF07F03F2
:106A500041F2042248F802300120BDE8F081002014
:106A6000FBE710B50446FFF7AAFF38B904F59053C9
:106A7000186800EBC00004EB800010BD0020FCE7AC
:106A800010B50446FFF79BFF30B904F5905003683A
:106A9000013303F07F03036010BD000038B500240C
:106AA000002C00DD38BD0C4A04EB4403D118D35C44
:106AB0000A4D03EB430205EB8202D37103EB430063
:106AC0008B784A78E1B205EB800000F005FA044BC0
:106AD00043F824000134E3E7F02A00200468002092
:106AE000C82E002010B50024002C00DD10BD034B83
:106AF00053F8240000F040FA0134F5E7C82E0020D6
:106B000070474378082B07D883783BB103793BB1B2
:106B100043793BB101207047002070470020704747
:106B2000002070470020704703685B78012B01D874
:106B30000020704743F69820704708B5036801228B
:106B40001A7002680023537002687F2191700268F6
:106B5000D3700268FF231371026853710068C17912
:106B6000FFF74EFE08BD10B5044602F0C4FFA06258
:106B700010BD2DE9F04182B015461E4690F8424006
:106B80000C44E4B2204602F059FA40B1D0F8088033
:106B90009DF82030009333462A462146C04702B074
:106BA000BDE8F0812DE9F04182B0054688461746E0
:106BB0001E46002495F84300A04209D900963B46A2
:106BC000424621462846FFF7D4FF0134E4B2F1E7FC
:106BD00002B0BDE8F08110B5044601684B790A792E
:106BE000C978FFF7DFFF2268E16BD3780B44D370DD
:106BF00010BD10B50446C36A13F0010F09D0016837
:106C00004B790A79C978FFF7CDFFE36A0133E36274
:106C100010BD00231A461946FFF7C4FFF5E708B573
:106C200001684B790A79C978FFF7BCFF08BD08B540
:106C300003685B78062B08D0072B10D0052B00D0FB
:106C400008BD012380F83830FAE7012380F840308E
:106C50000021C1620B460A46FFF7A4FFF0E70021BE
:106C6000C1620B460A46FFF79DFFE9E710B50446EF
:106C70000023C362012280F8402020220263436384
:106C80000223C36302F037FFA0621AF045F90B4BF1
:106C9000A3600B4BE3600B4B63600B4B23610B4B0F
:106CA00063610B4BA3610B4BE3610B4B23620B4BFB
:106CB00063622046FFF7BBFF10BD00BF1F6C0200E0
:106CC000F36B0200D76D0200956D0200916E020019
:106CD000116E02003B6D0200E16C0200D76B0200F6
:106CE00010B582B00446C16A19BB90F8431001394F
:106CF000C9B20022009213462046FFF73AFF2168EE
:106D00000B79CA784979009194F82C102046FFF746
:106D100030FFE36A5A1C94F84310B2FBF1F301FB15
:106D20001323E3621BB92268D3780133D37002B016
:106D300010BDC9B20139C9B2DBE710B582B0044653
:106D400090F840308BB101680B79CA78497900918D
:106D500090F82C10FFF70DFFE36A0133E36294F81B
:106D60004320934209D002B010BD00220092134686
:106D700090F82C10FFF7FDFEEEE70023E36294F895
:106D8000403083F0010384F840302268D378013327
:106D9000D370E8E7F0B583B0064690F84330FF279C
:106DA00097FBF3F7002496F84330A3420DDDE1B2E0
:106DB0003568EA782B7901FB072268790090D2B216
:106DC0003046FFF7D6FE0134EDE73268D378013361
:106DD000D37003B0F0BDF0B583B0064690F84330F1
:106DE000FF2797FBF3F7002496F84330A3420DDD0D
:106DF000E1B23568EA782B7901FB072268790090C7
:106E0000D2B23046FFF7B5FE0134EDE703B0F0BD76
:106E100010B50446406B1BF007FF15A3D3E9002310
:106E20001CF0A6F814A3D3E900231BF077FF41EC74
:106E3000100B1AF069F91AF0BFF951EC100B10A3FE
:106E4000D3E900231BF0B2FD0FA3D3E900231BF00D
:106E500065FF1CF025FA2168C3B20A79C97820467B
:106E6000FFF7A0FE636B0133636310BDAFF30080D7
:106E70000000000000E06F40182D4454FB21094041
:106E800038EF2C36568BE73F3105E4EE7D1F5B4033
:106E900038B50446002594F84330AB420ADD02F0D1
:106EA00023F801462268537912792046FFF77AFECB
:106EB0000135F0E738BD38B50446806A02F025FE9A
:106EC00023689D7805FB00F52046FFF72DFE8542DF
:106ED00034BF0020012038BD2DE9F04184B00C46BC
:106EE000214904EB0415AE0001EB8505885100270C
:106EF000877189598D6085F8414085F8422085F871
:106F00004330FFF7B8FC38B3174F4FEA041804EBCF
:106F10000416B600B859C179FFF71EFCB9590A78B2
:106F20004B788878CE7891F804C049790391CDF8F0
:106F300008C00196009021460C4807F0A3FB44448A
:106F400057F82400FFF7DDFD48B12846FFF78EFE15
:106F5000284604B0BDE8F081FFF766FCD4E7284678
:106F6000FFF7EBFDF1E700BFCC2E0020F437040063
:106F700008B5FFF75CFE08BD10B5044603681B7832
:106F80006BB1FFF798FF78B123685B7804EB83035C
:106F90005B68204698472046FFF7E5FD04E00023A4
:106FA0001A461946FFF7FEFD10BD00002DE9F04717
:106FB00084B007460D4690461C46394B1B684BB1C2
:106FC0002E46384901EB0511CB7B4BB1084604B086
:106FD000BDE8F087002001F09FFA314B1860EFE721
:106FE00030482A0100EB05135F70855483F8028056
:106FF000DC70596000248DF80F40DFF8A4904FF04A
:10700000640ACDF804A04FF00108CDF800800DF11E
:107010000F037F223946D9F8000001F0B9FA404643
:1070200002F0B4FD03238DF80F30CDF804A0CDF8A5
:1070300000800DF10F0311223946D9F8000001F04C
:10704000A7FA8DF80F40CDF804A0CDF800800DF11F
:107050000F0312223946D9F8000001F099FACDF851
:1070600004A0CDF800800DF10F0313223946D9F8A2
:10707000000001F08DFA2346052B08D8094A02EBDF
:1070800006121A44002111720133DBB2F4E70548FD
:1070900000EB05150023AB730123EB73284696E73D
:1070A000302F0020102F002070B49DF80C50406845
:1070B00084788C4227DCC67834448C4223DD134C20
:1070C00004EBC10464880619367A964203D004445E
:1070D0002272012282730D4A02EBC1029288841847
:1070E000247A9C4203D00244137201238373074B1A
:1070F00003EBC101CB88C218127AAA4203D0034421
:107100001D720123837370BC704700BFD02A00201A
:107110002DE9F04182B00546884617461E460024F8
:10712000E878A04209D900963B46424621462846C7
:10713000FFF7BAFF0134E4B2F2E702B0BDE8F08134
:10714000F0B583B04468E37B0BB1A37B0BB903B00C
:10715000F0BD61781D4D642701970126009604F16A
:1071600008032022286801F013FA6178019700963D
:1071700004F109032122286801F00AFA61780197D5
:10718000009604F10A032222286801F001FA6178CE
:107190000197009604F10B032322286801F0F8F907
:1071A00061780197009604F10C032422286801F00D
:1071B000EFF961780197009604F10D032522286804
:1071C00001F0E6F90023A373C1E700BF302F0020D0
:1071D0007047000070B584B004461F4B1B682BB38A
:1071E0000026162002F0BAFC0121162002F0A5FCB0
:1071F000012002F0CBFC00238DF80F3064230193B3
:10720000012300930DF10F037F22214612480068ED
:1072100001F0BEF90446162002F0A8FC002C0CBFB9
:107220000125002509D1284604B070BD002001F0D9
:1072300073F9094B18600126D3E732462146074807
:1072400007F020FA002EEED0034C206801F0C6F9BA
:1072500000232360E7E700BF502F002040380400E0
:107260002DE9F04784B007460E4690461C46414B38
:107270001B685BB13546C6EBC6013F4800EB810198
:107280004B7E4BB1084604B0BDE8F087002001F00A
:1072900043F9384B1860EDE7374AC6EBC60002EBFE
:1072A00080035F7002F8206083F80280DC70596010
:1072B00000238DF80F3064230193012300930DF117
:1072C0000F037F2239462B48006801F061F901461F
:1072D000002840D1012002F059FC03238DF80F3023
:1072E000DFF890804FF0640ACDF804A04FF0010958
:1072F000CDF800900DF10F0311223946D8F80000A7
:1073000001F046F900248DF80F40CDF804A0CDF827
:1073100000900DF10F0312223946D8F8000001F059
:1073200037F9CDF804A0CDF800900DF10F0313222A
:107330003946D8F8000001F02BF923460F2B0ED860
:10734000C5EBC5020C4800EB82021A440021117201
:107350000133DBB2F2E7094807F094F9BAE70648CF
:10736000C6EBC60300EB830300221A7601225A768D
:10737000184688E7502F0020342F0020683804007A
:1073800070B49DF80C50C4788C4224DD4068134CD6
:1073900004EBC10464880619367A964203D004448B
:1073A0002272012202760D4A02EBC10292888418F1
:1073B000247A9C4203D00244137201230376074BC4
:1073C00003EBC101CB88C218127AAA4203D003444E
:1073D0001D720123037670BC704700BFD02A0020C5
:1073E0002DE9F04182B00546884617461E46002426
:1073F000E878A04209D900963B46424621462846F5
:10740000FFF7BEFF0134E4B2F2E702B0BDE8F0815D
:107410002DE9F04383B04468637E002B3DD0237E8A
:10742000002B3AD00025E378AB4234D91C4E06EB52
:10743000C506728802F1080320326178194F4FF0B7
:107440006409CDF804904FF00108CDF80080234482
:10745000D2B2386801F09CF8B28802F108032032F9
:107460006178CDF80490CDF800802344D2B238681A
:1074700001F08EF8F28802F1080320326178CDF82D
:107480000490CDF800802344D2B2386801F080F82F
:107490004544EDB2C7E70023237603B0BDE8F0838F
:1074A000D02A0020502F002043685A7E0AB10022C3
:1074B0005A76704700B585B000238DF80F304178BB
:1074C00064230193012300930DF10F034F2203481E
:1074D000006801F05DF805B05DF804FB542F002052
:1074E0002DE9F04385B00446314B1B6853B304F1DA
:1074F000080725220021384619F006FD01252572CE
:10750000002684F82D6004F12E08252229464046E5
:1075100019F0FAFC262384F82E3084F853608DF895
:107520000F606423019300950DF10F034F226178E2
:107530001F48006801F02CF850B11E4B1E7005B0BA
:10754000BDE8F083002000F0E7FF194B1860CEE79C
:107550000A2002F01BFB4FF001098DF80F90144D2B
:1075600064260196CDF800900DF10F03002261789A
:10757000286801F00DF800962523424661782868B6
:1075800000F0D6FF009625233A466178286800F07F
:10759000CFFF00238DF80F300196CDF800900DF14C
:1075A0000F0325226178286800F0F2FFC7E700BFCB
:1075B000542F0020F32A0020014B1878704700BF99
:1075C000F32A0020F8B505460E48582404FB0100B4
:1075D00090F8544024B10B4C582000FB0140F8BDFA
:1075E000084F582606FB01F6BC196570B955A27004
:1075F000E3706060FFF774FF012384F85430204685
:10760000EDE700BF582F002010B504460020FFF71B
:10761000D3FF00B910BD2046FFF74CFF58220021D0
:10762000606819F071FCF5E710B444680B4800EB92
:10763000C10148880130204402728A880132224404
:107640001372CB88013323449DF804201A7201235E
:1076500084F82D305DF8044B704700BFD02A00201D
:107660002DE9F04182B00546884617461E460024A3
:10767000E878A04208DD00963B464246E1B2284643
:10768000FFF7D2FF0134F3E702B0BDE8F08100005C
:1076900070B584B004460020FFF78EFF70B16568B6
:1076A00095F82D3023B995F853204AB1012600E012
:1076B00001263BB995F8533093B9FEB904B070BDBB
:1076C0000026F6E764230093252305F1080261787C
:1076D0001248006800F02CFF002385F82D30E9E700
:1076E00064230093252305F12E0261780B4800687E
:1076F00000F01EFF002385F82D30DEE700238DF813
:107700000F3064230193012300930DF10F03252211
:1077100061780248006800F03BFFCFE7542F00205B
:10772000F0B585B004460B238DF80F300C4D64275F
:107730000197012600960DF10F03FD22417828687C
:1077400000F026FF00238DF80F30019700960DF111
:107750000F030A226178286800F01AFF05B0F0BD17
:10776000B02F00202DE9F04F85B00446754B1B6803
:10777000002B00F0D58004F1080A91220021504628
:1077800019F0C2FB24232372002784F8997004F1B6
:107790009A0513223946284619F0B6FB84F89A70E8
:1077A00084F8AD704FF00B0B8DF80FB0DFF89481BB
:1077B0004FF06409CDF80490012600960DF10F03F7
:1077C000FD226178D8F8000000F0E2FE8DF80F701D
:1077D000CDF8049000960DF10F030A226178D8F8D5
:1077E000000000F0D5FE0A2002F0D0F98DF80F70ED
:1077F000CDF8049000960DF10F033A466178D8F861
:10780000000000F0C5FE8DF80F70CDF804900096D2
:107810000DF10F0332466178D8F8000000F0B8FE91
:10782000CDF8049000960DF10F0306226178D8F888
:10783000000000F0ADFECDF8049000960DF10F03AE
:10784000FD226178D8F8000000F0A2FECDF800908B
:10785000912352466178D8F8000000F069FE8DF857
:107860000FB0CDF8049000960DF10F03FD22617862
:10787000D8F8000000F08CFE8DF80F60CDF8049071
:1078800000960DF10F030A226178D8F8000000F08D
:107890007FFE8DF80F70CDF8049000960DF10F0368
:1078A000FD226178D8F8000000F072FE3A46E378D5
:1078B00093423BDDA3789918234B03EBC1035F8808
:1078C000C7F3C706B3F804E0CEF3C700D988C1F305
:1078D000C70307F007070EF0070E01F00701013696
:1078E0004FF0010C0CFA07F7264496F89A8048EA04
:1078F000070786F89A7060440CFA0EF7204490F857
:107900009A603E4380F89A6063440CFA01F1234484
:1079100093F89AC04CEA010183F89A100132C6E745
:10792000002000F0F9FD074B186024E76423009362
:1079300013232A4661780348006800F0F9FD05B07A
:10794000BDE8F08FB02F0020D02A0020F8B5054602
:107950000E48B02404FB010090F8AE4024B10B4C5B
:10796000B02000FB0140F8BD084FB02606FB01F631
:10797000BC196570B955A270E3706060FFF7F2FE44
:10798000012384F8AE302046EDE700BFB42F00207D
:1079900010B50446FFF7C4FEB0220021606819F05C
:1079A000B3FA10BD10B444680B4800EBC10148881D
:1079B0000130204402728A88013222441372CB883B
:1079C000013323449DF804201A72012384F899306E
:1079D0005DF8044B704700BFD02A00202DE9F0412C
:1079E00082B00546884617461E460024E878A04225
:1079F00008DD00963B464246E1B22846FFF7D2FF3B
:107A00000134F3E702B0BDE8F081000010B582B0A8
:107A1000446894F899300BB902B010BD6423009308
:107A2000912304F1080241780348006800F080FDCA
:107A3000002384F89930EFE7B02F0020F0B585B02F
:107A40000446C5238DF80F30124D64270197012697
:107A500000960DF10F03FE224178286800F098FD92
:107A600003238DF80F30019700960DF10F03FD22CF
:107A70006178286800F08CFD00228DF80F200197B6
:107A800000960DF10F036178286800F081FD05B0C4
:107A9000F0BD00BF643000202DE9F04784B00446FB
:107AA000724B1B68002B6BD004F10805C02200212B
:107AB000284619F029FA002784F8C87004F1C9068D
:107AC00018223946304619F01FFA84F8E170C523B0
:107AD0008DF80F30DFF894814FF0640ACDF804A0E0
:107AE0004FF00109CDF800900DF10F03FE226178EF
:107AF000D8F8000000F04CFD8DF80F70CDF804A010
:107B0000CDF800900DF10F03FD226178D8F8000048
:107B100000F03EFD3946E3788B4237DDA2785318FA
:107B2000534A02EBC3025388C3F3C70EB2F8048072
:107B3000C8F3C70CD288C2F3C70003F0070308F0EC
:107B4000070802F00707012202FA03F3A6449EF891
:107B5000C99049EA03038EF8C93002FA08FE04EB23
:107B60000C0393F8C9C04CEA0E0C83F8C9C0BA40A4
:107B7000231893F8C900024383F8C9200131CAE7EA
:107B8000002000F0C9FC394B18608DE7374F4FF0EB
:107B90006408CDF80080182332466178386800F018
:107BA000C7FC4FF0C5098DF80F90CDF80480012671
:107BB00000960DF10F03FE226178386800F0E8FCB2
:107BC0008DF80F60CDF8048000960DF10F03FD22B3
:107BD0006178386800F0DCFCCDF80080C0232A46CC
:107BE0006178386800F0A4FC8DF80F90CDF804801F
:107BF00000960DF10F03FE226178386800F0C8FC92
:107C000003238DF80F30CDF8048000960DF10F039B
:107C1000FD226178386800F0BBFCFF238DF80F303F
:107C2000CDF8048000960DF10F0332466178386874
:107C300000F0AEFC8DF80F60CDF8048000960DF1D9
:107C40000F0300226178386800F0A2FC8DF80F6005
:107C5000CDF8048000960DF10F03FD22617838689D
:107C600000F096FC04B0BDE8F08700BF643000204F
:107C7000D02A0020F8B505460E48E42404FB010094
:107C800090F8E24024B10B4CE42000FB0140F8BD29
:107C9000084FE42606FB01F6BC196570B955A270C1
:107CA000E3706060FFF7F8FE012384F8E2302046BD
:107CB000EDE700BF6830002010B50446FFF7BEFEB8
:107CC000E4220021606819F01FF910BD10B4446867
:107CD000094800EBC1014888204402728A88224486
:107CE0001372CB8823449DF804201A72012384F870
:107CF000C8305DF8044B7047D02A00202DE9F041D0
:107D000082B00546884617461E460024E878A04201
:107D100008DD00963B464246E1B22846FFF7D6FF13
:107D20000134F3E702B0BDE8F081000010B582B085
:107D3000446894F8C8300BB902B010BD64230093B6
:107D4000C02304F1080241780348006800F0F0FB0A
:107D5000002384F8C830EFE764300020F0B585B028
:107D60000446C5238DF80F30124D64270197012674
:107D700000960DF10F03FE224178286800F008FC00
:107D800004238DF80F30019700960DF10F03FD22AB
:107D90006178286800F0FCFB00228DF80F20019725
:107DA00000960DF10F036178286800F0F1FB05B033
:107DB000F0BD00BF4C3100202DE9F04389B046688A
:107DC00096F8693113B909B0BDE8F0830546C523BB
:107DD0008DF81F30444F4FF06409CDF804904FF0F8
:107DE0000108CDF800800DF11F03FE2241783868AC
:107DF00000F0CEFB00248DF81F40CDF80490CDF8A4
:107E000000800DF11F03FD226978386800F0C0FB87
:107E100025E0C5238DF81F30DFF8CC804FF06409D2
:107E2000CDF80490012700970DF11F03FE22697819
:107E3000D8F8000000F0ACFB8DF81F70CDF804906E
:107E400000970DF11F03FD226978D8F8000000F0BB
:107E50009FFB09E06978254806F014FC1234B4F55C
:107E6000AB7F22DAB42CD4D0214B83FB04231A1924
:107E7000E317C3EBE213B42202FB13438DF808307F
:107E800004F10801122231440DF1090019F02EF815
:107E900064230093132302AA69781348006800F052
:107EA00047FB02460028D9D0D4E7A2238DF808303A
:107EB000092206F5AF710DEB020019F017F86423E3
:107EC00000930A2302AA69780748006800F030FB93
:107ED000024618B9002386F8693174E769780348C7
:107EE00006F0D0FBF6E700BF4C31002088380400D4
:107EF000B7600BB6014B1878704700BFF42A00201A
:107F000010B504460020FFF7F5FF00B910BD20466C
:107F1000FFF724FF4FF434720021606818F0F4FF7B
:107F2000F4E7000010B44468094800EBC101488838
:107F3000204402728A8822441372CB8823449DF81D
:107F400004201A72012384F869315DF8044B7047EC
:107F5000D02A00202DE9F04182B005468846174618
:107F60001E460024E878A04208DD00963B464246C3
:107F7000E1B22846FFF7D6FF0134F3E702B0BDE8CF
:107F8000F08100002DE9F04184B004460020FFF7A5
:107F9000B1FF18B1656895F8CB3213B904B0BDE8EC
:107FA000F081C5238DF80F302D4E642701974FF0D7
:107FB0000108CDF800800DF10F03FE2261783068D2
:107FC00000F0E6FA02238DF80F300197CDF800801B
:107FD0000DF10F03FD226178306800F0D9FA0097A7
:107FE000B52305F5B5726178306800F0A1FA024654
:107FF00058BBC5238DF80F30194E642701974FF0F9
:108000000108CDF800800DF10F03FE226178306881
:1080100000F0BEFA03238DF80F300197CDF80080F1
:108020000DF10F03FD226178306800F0B1FA00977E
:10803000AC2305F21F226178306800F079FA02461D
:1080400040B9002385F8CB32A8E76178054806F0EF
:1080500019FBCEE76178044806F014FBF1E700BF96
:108060004C310020C438040004390400F0B585B058
:108070000446404B1B68002B6ED0C5238DF80F3093
:108080003C4D64270197012600960DF10F03FE2257
:108090006178286800F07CFA04238DF80F3001978E
:1080A00000960DF10F03FD226178286800F070FA48
:1080B000AE238DF80F30019700960DF10F033F228C
:1080C0006178286800F064FA014600284AD10A2045
:1080D00001F05CFD01258DF80F50264E64270197B5
:1080E00000950DF10F0300226178306800F050FA1E
:1080F000FF238DF80F30019700950DF10F032A46ED
:108100006178306800F044FA77238DF80F300197DA
:1081100000950DF10F0302226178306800F038FA03
:1081200040F26112002104F1080018F0EDFE84F81D
:10813000695140F26112802104F5B57018F0E4FE37
:10814000002384F86A3184F81F3284F8CB52204629
:10815000FFF718FF05B0F0BD002000F0DDF9054B7A
:1081600018608AE7044806F08DFA044B00221A7062
:10817000F0E700BF4C31002044390400F42A00200D
:10818000F8B5054611484FF4347404FB010090F82B
:10819000CC422CB10D4C4FF4347000FB0140F8BDC3
:1081A0000A4F4FF4347606FB01F6BC196570B955D9
:1081B000A270E3706060FFF759FF012384F8CC32AE
:1081C000034806F05FFA2046E9E700BF503100207F
:1081D0006839040008B5FFF7EFFD08BD0023072B41
:1081E00016DC10B407E048F206040A4A22F81140EF
:1081F0000133072B09DCC3F1070240FA02F212F047
:10820000010FF0D048F20D04EFE75DF8044B704722
:10821000704700BF2034002070B50E461D4600EBAD
:108220004004E400A4B221461046FFF7D7FF04F152
:10823000080189B23046FFF7D1FF04F1100189B27D
:108240002846FFF7CBFF70BD70470000244B1B781A
:1082500003B1704710B584B0044601F07FFC0021E3
:10826000204601F06AFC8DF80440FF238DF80530AC
:108270008DF806308DF8073000248DF8094014235E
:10828000ADF80C308DF80A4006238DF808308DF8D3
:108290000E408DF80F40134A01A9134812F062F8FE
:1082A00023465F2B06DC114A48F2060122F8131020
:1082B0000133F6E7002307E003F160010B4A4FF4B6
:1082C000004022F811000133002BF5DD084B61223C
:1082D0009A800123024A1370064A137004B010BD3D
:1082E0000435002049820200F82A002020340020B2
:1082F000002B0020E234002010B4094C04EBC00431
:108300006488032C05DC074800EBC40041808280B0
:10831000C380054B01221A705DF8044B704700BF03
:10832000D02A0020E4340020E234002010B40024DD
:1083300006E0074B03EBC40358809980DA800134D0
:10834000032CF6DD034B01221A705DF8044B7047D5
:10835000E4340020E234002010B5194B1B7883B1BF
:10836000184B1B7853B30024032C0DDC164901EB8A
:10837000C4018B790A798978A0B2FFF74DFF0134E7
:10838000F2E7FFF763FFEBE7002307E003F160018B
:108390000E4A4FF4004022F811000133002BF5DDA6
:1083A0000B4961238B8001231A460A4812F080F89A
:1083B000022001F0EBFB034B00221A7010BD00BF3E
:1083C00004350020E2340020E43400202034002072
:1083D000002B0020F82A002008B5064B1B7803B9B3
:1083E00008BD054812F03EF80023024A1370034A04
:1083F0001370F5E704350020F82A0020E23400204D
:1084000003690BB9014B1970704700BF0535002097
:1084100010B50C460378042B06D8DFE803F0030AF6
:1084200011181F0000234B6101212046FFF7E8FFD0
:1084300010BD0E4806F026F941F201036361F3E72F
:108440000B4806F01FF941F201036361ECE70948AC
:1084500006F018F941F201036361E5E7064806F00A
:1084600011F941F201036361DEE700BF84390400C2
:1084700098390400A8390400B439040038B5054619
:1084800001F039FB04462B6913B10125284638BD9C
:10849000054B1B7803F0FF05002BF7D1204601F0B8
:1084A00034FB6428F4D9F1E705350020007E7047DD
:1084B00030B585B00446FFF7F9FF08B105B030BD0F
:1084C000104B6D460FCB85E80F00A3680093E3685F
:1084D000019323460C4A2946204613F073FC60B9E9
:1084E00001232376204613F0EBFC084806F0CAF877
:1084F0002146074803F09EFAE0E7064A602101F0B2
:1085000013FAEDE7143A040011840200E039040084
:1085100001860200C439040008B10020704710B57C
:10852000024C2046FFF7C4FF204610BD102B002050
:108530002DE9F04182B004460D4616461F464FF025
:108540000008C0F814804146FFF75AFFCDF80080BC
:108550003B4632466908204613F08CFD38B9204668
:10856000FFF78CFF50B1606902B0BDE8F0810146B1
:10857000064806F087F841F20100F5E701212046A0
:10858000FFF73EFF41F20100EEE700BFF0390400C3
:108590002DE9F04383B002AF04460D4616463A6A11
:1085A00002F1010802F1080020F00700ADEB000D18
:1085B0000DF1080919460DF1090018F097FC8DF826
:1085C00008600023009343464A4629462046FFF7A9
:1085D000AFFF0437BD46BDE8F083000010B5044688
:1085E000FFF764FF00B910BD204613F095FC034867
:1085F00006F048F800232376F5E700BF043A0400AC
:1086000008B5FFF7EBFF08BD08B5006AFFF778FC77
:1086100008BD08B5006AFFF7DDFD08BD08B5006AB2
:10862000FFF798FC08BD10B582B0006A9DF81040B5
:108630000094C9B2FFF776FC02B010BD10B582B04D
:1086400004468DF804108DF805208DF80630019849
:1086500000F0BAFBC0F30743C0F30722C1B2206A9F
:10866000FFF778FC02B010BD30B585B004460D466A
:108670008DF80C208DF80D309DF820308DF80E30DF
:10868000039800F0A1FBC0F307430093C0F3072356
:10869000C2B2E9B2206AFFF745FC05B030BD10B5A3
:1086A0000446C0690379C27881784078FFF768FD95
:1086B000206210BD08B5006AFEF7A6FF08BD08B528
:1086C000006AFEF7E5FF08BD08B5006AFEF7C8FFBF
:1086D00008BD10B582B004468DF804108DF8052051
:1086E0008DF80630019800F06FFBC0F30743C0F32C
:1086F0000722C1B2206AFEF7B3FF02B010BD10B569
:1087000082B0006A9DF810400094C9B2FEF78CFF59
:1087100002B010BD30B585B004460D468DF80C2072
:108720008DF80D309DF820308DF80E30039800F054
:108730004BFBC0F307430093C0F30723C2B2E9B277
:10874000206AFEF771FF05B030BD10B50446C06960
:108750000379C27881784078FEF734FF206210BD3B
:1087600008B5006AFFF7A8FA08BD08B5006AFFF768
:10877000DDFA08BD08B5006AFFF7C0FA08BD10B5FC
:1087800082B004468DF804108DF805208DF806306F
:10879000019800F019FBC0F30743C0F30722C1B2F0
:1087A000206AFFF7ABFA02B010BD00B583B0006AD3
:1087B00000939DF81030C9B2FFF788FA03B05DF856
:1087C00004FB30B585B004460D468DF80C208DF8BD
:1087D0000D309DF820308DF80E30039800F0F4FA3B
:1087E000C0F307430093C0F30723C2B2E9B2206A83
:1087F000FFF76CFA05B030BD10B50446C0690379C7
:10880000C27881784078FFF735FA206210BD08B54C
:10881000006AFFF7BDF808BD08B5006AFFF7F6F873
:1088200008BD10B514461A462346006AFFF7D6F86D
:1088300010BD10B582B004468DF804108DF80520E7
:108840008DF80630019800F0BFFAC0F30743C0F37B
:108850000722C1B2206AFFF7C1F802B010BD00B50F
:1088600083B0006A00939DF81030C9B2FFF79AF800
:1088700003B05DF804FB30B585B004460D468DF8B5
:108880000C208DF80D309DF820308DF80E300398B7
:1088900000F09AFAC0F307430093C0F30723C2B273
:1088A000E9B2206AFFF77EF805B030BD10B5044686
:1088B000C0690379C27881784078FFF747F8206271
:1088C000014805F0DFFE10BD243A040008B5006A37
:1088D000FEF77EFC0021162001F02FF9014805F07B
:1088E000D1FE08BD383A040008B5006AFEF728FC3E
:1088F00008BD08B5006AFEF70BFC08BD10B582B0D4
:1089000004468DF804108DF805208DF80630019886
:1089100000F05AFAC0F30743C0F30722C1B2206A3D
:10892000FEF7F6FB02B010BD10B582B0006A9DF8EC
:1089300010400094FEF7B8FB02B010BD30B585B012
:1089400004460D468DF80C208DF80D309DF8203032
:108950008DF80E30039800F037FAC0F30743009308
:10896000C0F30723C2B22946206AFEF79DFB05B07B
:1089700030BD000010B50446162001F0EFF80121CB
:10898000162001F0DAF8012001F000F9E06903791E
:10899000C27881784078FEF709FB2062014805F033
:1089A00071FE10BD483A040008B5006AFEF77CFD70
:1089B0000021162001F0C1F8014805F063FE08BD52
:1089C000583A040008B5006AFEF722FD08BD08B554
:1089D000006AFEF705FD08BD10B582B004468DF8AB
:1089E00004108DF805208DF80630019800F0ECF9A0
:1089F000C0F30743C0F30722C1B2206AFEF7F0FCC0
:108A000002B010BD10B582B0006A9DF8104000940D
:108A1000FEF7B6FC02B010BD30B585B004460D4679
:108A20008DF80C208DF80D309DF820308DF80E302B
:108A3000039800F0C9F9C0F307430093C0F307237C
:108A4000C2B22946206AFEF79BFC05B030BD00008B
:108A500010B50446162001F081F80121162001F01E
:108A60006CF8012001F092F8E0690379C27881780E
:108A70004078FEF7F5FB2062014805F003FE10BDCB
:108A8000683A040008B50C20FFF7A6FC0021162068
:108A900001F053F808BD08B50C20FFF75DFC08BDD8
:108AA00008B5084611461A46FFF740FC08BD00B558
:108AB00083B08DF804108DF805208DF806300198EC
:108AC00000F082F9C0F30742C0F30721C0B2FFF7FC
:108AD0002DFC03B05DF804FB08B5084611461A46A4
:108AE0009DF80830FFF708FC08BD10B582B00C46B1
:108AF0008DF804208DF805309DF810308DF8063083
:108B0000019800F061F9C0F30743C0F30722C1B236
:108B10002046FFF7F1FB02B010BD10B50446162049
:108B200001F01CF80121162001F007F8012001F0E6
:108B30002DF80C20FFF78AFB0023236210BD0000F4
:108B400030B4034601EBC102554800EB8200C3611B
:108B5000002202621B78062B00F2A080DFE803F0FF
:108B6000041B31475D7389004D4B01EBC10403EBDE
:108B700084024C4D43F824504B4C94604B4CD460D1
:108B80004B4C14614B4C54614B4C946113464B4A13
:108B90005A6030BC7047424B01EBC10403EB8402C6
:108BA000474D43F82450474C9460474CD460474CA1
:108BB0001461474C5461474C94611346464A5A60CD
:108BC000E7E7374B01EBC10403EB8402434D43F865
:108BD0002450434C9460434CD460434C1461434C48
:108BE0005461434C94611346424A5A60D1E72C4B7E
:108BF00001EBC10403EB84023F4D43F824503F4C8A
:108C000094603F4CD4603F4C14613F4C54613F4CE6
:108C1000946113463E4A5A60BBE7214B01EBC10405
:108C200003EB84023B4D43F824503B4C94603B4C97
:108C3000D4603B4C14613B4C54613B4C94611346F3
:108C40003A4A5A60A5E7164B01EBC10403EB8402D4
:108C5000374D43F82450374C9460374CD460374C30
:108C60001461374C5461374C94611346364A5A604C
:108C70008FE70B4B01EBC10403EB8402334D43F848
:108C80002450334C9460334CD460334C1461334CD7
:108C90005461334C9461334B53607AE7002078E79A
:108CA000E06700201B8B0200EB8A0200AF8A020003
:108CB000D98A0200A18A0200978A0200858A0200EE
:108CC000518A0200198A0200D9890200058A02002D
:108CD000CF890200C5890200A989020075890200B6
:108CE0003D890200FD88020029890200F388020004
:108CF000E9880200CD880200AD8802007788020072
:108D0000338802005F88020023880200198802006D
:108D10000F880200F9870200C38702007F870200E4
:108D2000AB870200758702006B8702006187020033
:108D30004B87020015870200D3860200FF860200DF
:108D4000C9860200BF860200B58602009F86020027
:108D5000698602003D860200278602001D86020009
:108D6000138602000986020010B50024002C00DDE5
:108D700010BD04EBC4039800024B184443689847A5
:108D80000134F3E7E067002010B50024002C00DD7B
:108D900010BD04EB8403E1B203481844FFF7D0FE92
:108DA000036898470134F1E7C82A002028B900EB8E
:108DB000C003034800EB830070470020704700BFEA
:108DC000E06700207047000030B484B00190C0F329
:108DD000072510F47F4F33D09DF8042091B29DF801
:108DE00006303F48C05C3F4BA3FB0131C9086FF020
:108DF0002A0303FB012303EB43035B00DBB2C5F152
:108E0000FF0404FB00F4C4F3072403FB05F2121271
:108E1000C2F1FF0202FB00F2C2F30722C3F1FF031B
:108E200003FB05F31B12C3F1FF0303FB00F3C3F3C2
:108E3000072304294DD8DFE801F01430373E450000
:108E40009DF80630264AD35C8DF80A308DF809303B
:108E50008DF80830029BADF80C301B0C8DF80E30ED
:108E60000BE08DF808008DF809308DF80A40029B60
:108E7000ADF80C301B0C8DF80E3000209DF80C3036
:108E800063F307009DF80D3063F30F209DF80E305B
:108E900063F3174004B030BC70478DF808208DF89C
:108EA00009008DF80A40E2E78DF808408DF80900C6
:108EB0008DF80A30DBE78DF808408DF809208DF831
:108EC0000A00D4E78DF808308DF809408DF80A00C3
:108ED000CDE78DF808008DF809408DF80A20C6E727
:108EE000783A040083BEA02F08B518F039F8074B74
:108EF00083FB00231A18C317C3EBE213C3EB03234E
:108F0000C31A03F11100C0B208BD00BF8180808088
:108F100083790BB1002070470920704708B538B13C
:108F2000162000F01BFE0121162000F006FE08BDF1
:108F3000162000F013FE0021162000F0FEFDF6E7DB
:108F400008B5837903B108BD8068FEF711F8FAE728
:108F500008B5013804282FD8DFE800F003172F3EAA
:108F60004D002C4B1B7803EB43002B4A02EB800295
:108F700052788A4220D0284803EB430200EB820259
:108F800051701046FFF7DCFF0DE0224B1B7803EB1E
:108F90004300214A02EB800292788A420CD01E4A9A
:108FA00002EB800399701B4B197801EB41001A4BBF
:108FB00003EB8000FDF724FC08BD164B1B7803EB88
:108FC0004300154A02EB8002D2788A42F4D0124A5A
:108FD00002EB8003D970E6E70E4B1B7803EB4300EE
:108FE0000D4A02EB800212798A42E5D00A4A02EB6E
:108FF00080031971D7E7074B1B7803EB4300064A40
:1090000002EB800252798A42D6D0034A02EB8003F7
:109010005971C8E7063500200468002008B5FDF73F
:1090200067F9054B00221A700120FFF777FFFFF761
:10903000ABFEFDF733FD08BD0635002008B5034B38
:1090400013F83000FFF7B2FE08BD00BFD02A0020A1
:1090500010B5104805F016FB002404B110BD0E4AEF
:1090600004EB440399005318012050540021597017
:10907000D970FF21197159717F219970DC7104EB4E
:109080004403980021461044FDF790FB0134E4B2FC
:10909000E3E700BF783B04000468002008B5002126
:1090A000024B1970024805F0EDFA08BD06350020A4
:1090B000903B0400054B1B7803EB43039A00044BE1
:1090C000985C003818BF0120704700BF06350020AB
:1090D0000468002010B50138042818D8DFE800F033
:1090E00003182E445A00364B1B78364803EB4302D4
:1090F00000EB8202547801341046FFF709FF94FB1D
:10910000F0F100FB1141C9B20120FFF721FF10BDB2
:109110002B4B1B7803EB43032A4A02EB83039B7818
:109120001033294981FB03211944C911C1EB0121E5
:10913000591AC9B20220FFF70BFFE8E7204B1B7852
:1091400003EB43031F4A02EB8303DB7808331E491A
:1091500081FB03211944C911C1EB0121591AC9B27C
:109160000320FFF7F5FED2E7154B1B7803EB430313
:10917000144A02EB83031B790833134981FB032153
:109180001944C911C1EB0121591AC9B20420FFF7D2
:10919000DFFEBCE70A4B1B7803EB4303094A02EBF3
:1091A00083035B790833084981FB03211944C91102
:1091B000C1EB0121591AC9B20520FFF7C9FEA6E784
:1091C00006350020046800208180808008B50138C1
:1091D000042812D8DFE800F0031223344500294B9D
:1091E0001B7803EB4303284A02EB8303597809B148
:1091F0000139C9B20120FFF7ABFE08BD214B1B7836
:1092000003EB4303204A02EB83039978112938BF0B
:1092100011211039C9B20220FFF79AFEEDE7194B70
:109220001B7803EB4303184A02EB8303D978082920
:1092300038BF08210839C9B20320FFF789FEDCE7EF
:10924000104B1B7803EB43030F4A02EB830319799E
:10925000082938BF08210839C9B20420FFF778FE71
:10926000CBE7084B1B7803EB4303074A02EB83036E
:109270005979082938BF08210839C9B20520FFF7F4
:1092800067FEBAE706350020046800200023184670
:109290001BB1003818BF0120704703EB43018A005F
:1092A00002498A5C10430133DBB2F1E70468002015
:1092B00010B5FDF717FCFFF7E9FF18B90020FFF71D
:1092C0002DFE10BD0024002CFBDCE0B2FFF76EFD8C
:1092D000836998470134F6E710B5FFF7D7FF80F0B0
:1092E0000104E4B2104B1978104A01EB410012F866
:1092F0002030B3FA83F35B0902F8203002EB8000E0
:10930000FDF77EFA1CB9FFF7C1FF30B110BD012097
:10931000FFF704FEFFF738FDF5E7FFF725FD002016
:10932000FFF7FCFDF2E700BF0635002004680020CF
:1093300008B500230BB140B108BD03EB4301074A58
:1093400002F821000133DBB2F4E7162000F006FC3E
:109350000021162000F0F1FBEEE700BF04680020BA
:1093600008B5FDF7CDFBFFF72DFD0020FFF7D6FD7B
:1093700008BD704738B500240D2C0BDC0B4B53F89F
:109380002450284600F0EAFB0021284600F0D5FBD7
:109390000134F1E70024042C06DC054B53F82400CB
:1093A00000F0ECFB0134F6E738BD00BFAC3B040035
:1093B000E43B040008B5FFF7DDFF0A220021054861
:1093C00017F0A2FD0A220021034817F09DFDFCF7CB
:1093D000B9FF08BD0C350020183500202DE9F843F1
:1093E00007460026B14624E00123B34025EA0303E3
:1093F000AB4203D027F808304FF001090134E4B242
:10940000042C0FD84FEA440837F81450154B53F882
:10941000240000F089FB0028E6D00123B3402B4351
:109420009BB2E5E70021104B53F8260000F085FBC6
:1094300001360D2E0ADC01210B4B53F8260000F0FB
:109440007CFB0A2000F0B0FB0024D9E7B9F1000F43
:1094500002D14846BDE8F8830023042BF9D8013334
:10946000DBB2FAE7E43B0400AC3B040000207047A9
:1094700038B5194D2846FFF7B1FF04462846FFF7D7
:10948000F5FF044314F0FF0F02D0144B1B7833B1E7
:10949000124B1B785BB9FFF76CFF012038BD0F4BF7
:1094A00001221A7000F02CFB0D4B1880F0E70C4BDA
:1094B000188800F030FB0428EDD90023042B07DCCA
:1094C000054A32F81310074A22F813100133F5E762
:1094D000024B00221A70DEE7183500200735002005
:1094E000083500200C350020014B33F81000704780
:1094F0000C35002010B50024042C09D82046FFF7B5
:10950000F3FF0146034805F0BDF80134E4B2F3E788
:1095100010BD00BFA83B040010B400231F2B08D8C7
:1095200003F5E0714FF0A042022042F82100013320
:10953000F4E700230D2B0FD8114A52F823004FF007
:10954000A04100F5E072032441F82240012282404C
:10955000C1F808250133EDE700230BE0094A52F872
:10956000232002F5E0724FF0A041074841F82200A5
:109570000133DBB2042BF1D95DF8044B704700BF17
:10958000AC3B0400E43B04000400020010B54FF0C3
:10959000A0440423C4F808370323C4F82437012067
:1095A00000F0F4FA4FF40073C4F80835012000F01D
:1095B000EDFAD4F81005C0F3800010BD00B587B0F7
:1095C00000230393049305930193029301AA03A933
:1095D000AB200DF0C3FC98B9124903A80DF05CFC58
:1095E00048F20663984203D028B907B05DF804FB3F
:1095F0000DF082FCF9E70C4A992100F095F9F4E7A7
:10960000084903A80DF042FC48F20663984206D0D0
:109610000028EAD0044AA02100F086F9E5E70DF021
:109620006BFCE2E72C2B0020F83B040010B5094846
:10963000094BC01AC0080004084C2278084940F0C1
:1096400003000EF0C7FC237803B910BDFFF7B6FF87
:10965000FBE700BFF47F0400AC7F0400643500200A
:109660001C3C040008B50378022B13D85AB2BAB9CF
:10967000ABB94268002A49D12A4B01221A702A4804
:109680002A4BC01AC0080004294940F003000EF01C
:109690002FFC04E0052B02D1264B1B7853BB08BDE1
:1096A000C268254B9A42FAD14268AAB11E481F4BA4
:1096B000C01AC0080004214940F003000EF08AFCE3
:1096C0000022A4211E480FF079FC0028E7D01D4A93
:1096D0003D2100F029F9E2E71348144BC01AC008F5
:1096E0000004194940F003000EF002FC114B002267
:1096F0001A70D4E70022A42111480FF05FFC002863
:10970000CDD0104A4B2100F00FF9C8E70648074BAF
:10971000C01AC00800040D4940F003000EF05AFCC6
:10972000BDE700BF22350020F47F0400AC7F0400B9
:10973000903C0400643500206565AB00443C0400A7
:10974000382B0020F83B0400743C0400A43C0400C7
:1097500008B5034B1B7813B900F04EF9F9E708BDC3
:109760002235002000B589B00023059306930793A6
:109770000393049303AA05A9AB200DF0EFFB48F275
:109780000963984213D000230193029301A905A80D
:109790000DF020FB88B9402202990D4817F0A6FB76
:1097A00005A80DF043FB68B909B05DF804FB402241
:1097B0000021074817F0A8FBF6E7064A872100F0CA
:1097C000B3F8E8E7034A8A2100F0AEF8ECE700BFFF
:1097D00024350020F83B040008B5164B1B7813B164
:1097E000FFF7C0FF08BD1448144BC01AC00800049E
:1097F000134940F003000EF07BFB0E4B00221A7061
:1098000010480DF06FFA0DF085FA40B90E4A0021AC
:109810000E480FF0BFFB38B9FFF79AFFE0E70C4A9C
:10982000672100F081F8F1E7094A6C2100F07CF82B
:10983000F2E700BF22350020F47F0400AC7F040073
:10984000C83C0400659602002D960200DC3C040032
:10985000F83B040008B50A4B1B5C8B420AD0084B4E
:109860001954084B01221A700022A42106480FF057
:10987000A5FB00B908BD054AAD2100F055F8F9E790
:109880002435002064350020382B0020F83B0400EC
:10989000014B185C704700BF2435002008B580B22A
:1098A000FFF7F6FF08BD08B580B2FFF7D3FF08BD8C
:1098B00038B50546FFF7F2FF04B2681CFFF7EEFF6C
:1098C00044EA002080B238BD38B505460C46C9B21E
:1098D000FFF7E9FF210A681CFFF7E5FF38BD00002C
:1098E00008B50EF047FE0EF0C5F90028FBD1642440
:1098F0004FF47A40094B43F001039847013CF7D1FC
:10990000BFF34F8F0649CA6802F4E062054B134368
:10991000CB60BFF34F8F00BFFDE700BFF03D0400F9
:1099200000ED00E00400FA0500B583B01346074CD3
:10993000074AA41AE408240400910246054944F0A9
:1099400001000EF053FCFFF7CBFF00BFF47F0400D3
:10995000AC7F0400E03C040008B54FF480410020D7
:109960000EF01AF910B90EF071F808BD014A632122
:10997000FFF7DAFF043D040008B50FF025F800B941
:1099800008BD024A7A21FFF7CFFF00BF043D040063
:1099900008B50FF0C9FA00B908BD024A7121FFF7F6
:1099A000C3FF00BF043D040008B5054A402108205C
:1099B0000FF070F800B908BD024A5B21FFF7B4FF51
:1099C00068350020043D040000B583B00B46074C09
:1099D0000749641AE408240400920246054944F049
:1099E00001000EF003FCFFF77BFF00BFF47F0400D3
:1099F000AC7F0400283D040008B50FF0D9F80EF044
:109A000039F900B108BD0EF0F5FFFBE7F8B501F03C
:109A1000FFFFFFF7A1FFFFF7AFFFFFF7B9FFFFF76A
:109A2000C3FF02F08DFA4FF08045D5F80024264C94
:109A3000264BE41AE408240444F003042449204695
:109A40000EF0C8FA0027C5F80074D5F81C65324638
:109A5000204920460EF0BEFAC5F81C7516F0020F1C
:109A60001CD1002516F0080F1ED01B4920460EF011
:109A70003FFA4FF08042D2F81C3543F00803C2F899
:109A80001C35002012F058FC0020144B987001F097
:109A90005FFA02F056FA01F0DFFAF8BD10492046ED
:109AA0000EF026FA0125DDE70E4920460EF020FAD9
:109AB0000A4B01229A7001F069F902F042FA284635
:109AC00001F082F9E9E700BFF47F0400AC7F0400F5
:109AD000603D0400803D0400C03D0400582B002080
:109AE000A43D0400D43D040008B502F02BFAFFF7B2
:109AF00083FF08BD704708B50FF0C2FA000908BD22
:109B000008B5FFF7F8FF80B208BD10B50446FFF7AF
:109B1000F2FF001B10BD08B5FFF7F7FF80B208BDCC
:109B200008B502F0F3FA08BD4FF0A043D3F81035A2
:109B300023FA00F000F00100704739B9012303FA5D
:109B400000F04FF0A043C3F80C057047012303FA5F
:109B500000F04FF0A043C3F80805704700F5E0702F
:109B60004FF0A043032243F82020704700F5E07037
:109B70004FF0A043002243F82020704700F5E0702A
:109B80004FF0A043042243F82020704710B504464C
:109B900038B14FF47A40034B43F001039847013C3E
:109BA000F7D110BD003E040030B108B58001034B71
:109BB00043F00103984708BD704700BF003E040012
:109BC0006CDF70476DDF704774DF704776DF70477A
:109BD00077DF704708B5024A8221FFF7A5FE08BD6E
:109BE000083E040010B582B004466846FFF7EAFF5D
:109BF00038B98DF802406846FFF7E2FF30B902B08D
:109C000010BD054A1D21FFF78FFEF2E7024A22210F
:109C1000FFF78AFEF3E700BF083E040008B5002006
:109C20000EF0F4FE08BD000010B5B8B0082810D83A
:109C3000DFE800F04805111C27323D61B400694897
:109C4000694BC01AC0080004684940F003000EF0D8
:109C50004FF938B010BD6348634BC01AC008000408
:109C6000634940F003000EF043F9F2E75D485E4BB4
:109C7000C01AC00800045F4940F003000EF038F934
:109C8000E7E75848584BC01AC00800045A4940F04A
:109C900003000EF02DF9DCE75248534BC01AC00800
:109CA0000004564940F003000EF022F9D1E74D4878
:109CB0004D4BC01AC0080004514940F003000EF09B
:109CC00017F9C6E74F4BDB7843B14F4B9888FFF746
:109CD00089FF04214D4804F086FEBAE74148424B13
:109CE000C01AC00800044A4940F003000EF000F911
:109CF000FFF794FFADE708230293039303AB18AA81
:109D000002A90AA809F05EFF30BB364C364BE41AB4
:109D1000E408240444F00404039B029A3D492046CD
:109D20000EF0DCF9022000F0D5FE374B9B88029A3A
:109D3000934216D3384920460EF0DAF800210091FC
:109D40000B460A46314804F04EFF002881D0334AC2
:109D5000CB21FFF7E9FD7CE7304ABB21FFF7E4FDAB
:109D6000D3E7C3EBC30238A90A4452F8B80D0490F4
:109D700091889279ADF814108DF8162038AA02EB6C
:109D80000313803B06AC0FCB84E80F000122009246
:109D9000234604A91D4804F026FFD6E71A4B18886D
:109DA0004FF6FF7398423FF454AF18A90AF012F827
:109DB00005283FF44EAF78B9062000F08BFE0DF178
:109DC0007101124804F0FFFE00283FF442AF134A2D
:109DD000DD21FFF7A9FD3CE7104AD621FFF7A4FDDE
:109DE000EAE700BFF47F0400AC7F0400343E0400C7
:109DF000543E04006C3E0400803E0400943E040087
:109E0000B83E0400582B0020402D00207839002057
:109E1000DC3E0400F03E0400343F0400083E040031
:109E200010B5ACB0AC22002101A817F06DF80223E8
:109E30008DF8043001238DF8063006228DF80720B6
:109E4000ADF814301E4A06921E4A02928DF87D30FB
:109E50008DF87E3000228DF87F20219222928DF89D
:109E600080302822239240F6B83224928DF8813037
:109E70004FF44863259344F250632693124B2A9380
:109E8000124B2B9301A9124804F037FD68B9104C0E
:109E90000121204604F02EFD042294F854100120E4
:109EA000FFF796FE30B92CB010BD0A4A4421FFF7E7
:109EB0003BFDECE7074A4921FFF736FDF3E700BF1A
:109EC000682B00206C2B0020299C0200D59B0200EF
:109ED00078390020083E040010B510B100F02EFEC5
:109EE00010BD0F4C0F4BE41AE408240409F09AFE4D
:109EF00002460D4944F003000EF06CF8012000F01A
:109F000061FD0A4B9888FFF76DFE0321084804F0B5
:109F10006AFD0028E4D0074A5821FFF705FDDFE776
:109F2000F47F0400AC7F0400603F0400402D00205B
:109F300078390020083E040070B58CB0264B5A8852
:109F40004FF6FF739A4219D0244E01AC351D0FCD48
:109F50000FC40FCD0FC495E8070084E80700012562
:109F60008DF8045001A9304604F073FE1A4C1321F9
:109F70006088FFF72BFEA5710CB070BD174E01ACC9
:109F8000351D0FCD0FC40FCD0FC495E8070084E831
:109F9000070000238DF8043001A9304604F059FE73
:109FA0000D4CA088FFF71EFEA48809F03BFE8442FA
:109FB0000ED296F85400FFF707FE0321304604F056
:109FC00012FD0028D8D0064A7421FFF7ADFCD3E774
:109FD000024804F01CFEF4E7402D002078390020F0
:109FE000083E04007047000030B484B003460A46BF
:109FF0000E4C04EBC10103C904AD05E90300013AAD
:10A000006D4604EBC20292E8030085E80300039862
:10A01000029C191B019B1B1A03FB01F3009A121BE4
:10A02000B3FBF2F3184404B030BC70478440040022
:10A0300008B510F07FFC30B90022212107480EF04E
:10A04000BDFF28B908BD064A6D21FFF76DFCF3E797
:10A05000034A6F21FFF768FCF4E700BF702B002074
:10A06000843F040008B54FF0A0434FF00062C3F8EE
:10A0700008250022212107480EF0A0FF0648074BC3
:10A08000C01AC0080004064940F003000DF030FF7C
:10A0900008BD00BF702B0020F47F0400AC7F0400DB
:10A0A000B03F040008B501464FF6FE720A4804F0BE
:10A0B000BDFE58B1112809D0132807D00F2805D0AC
:10A0C000082803D043F20142904200D108BD034A60
:10A0D0006221FFF729FCF9E7AC3D0020843F040032
:10A0E0002DE9F04184B006464FF4965404FB00F489
:10A0F000A40A002319460B2B0CD8214A52F833200E
:10A10000A24201D90133F5E793B32046FFF76CFF74
:10A11000074600E000271B4B9B79BB422AD9A3EBE3
:10A120000708194D19482D1AED082D04CDF808809F
:10A130000193009723463246154945F003000EF07F
:10A140006BF9B8F1050F18D90E498B79C3EB0312DF
:10A15000462303FB07F303EB42030E4AA2FB032350
:10A160005B098B71F8B2FFF79DFF04B0BDE8F08189
:10A170006427D0E7A7EB0308D3E7024B9F71F1E711
:10A1800084400400582B0020F47F0400AC7F0400BE
:10A19000D03F04001F85EB51037803B1704710B521
:10A1A000044600231A462089984206DD616831F88A
:10A1B0001300024412B20133F5E792FBF0F00028DD
:10A1C00010DBFFF78DFF0521606810F04BFBB0B985
:10A1D0004FF0A0434FF00062C3F80C250A480EF080
:10A1E0001CFF10BD094B0A4A9B1ADB081B040246E0
:10A1F000084943F003000DF0EDFE0020E1E7064AB8
:10A20000D321FFF791FBE3E7702B0020F47F0400DC
:10A21000AC7F040020400400843F040000B585B0FA
:10A220002348244BC01AC008000405231B222249DE
:10A2300040F003000DF052FF204A01AB07CA03C3F0
:10A240001A7002238DF806301D491E4810F050FA8E
:10A25000D0B901A9002010F0A3FAD0B905211A48FD
:10A2600010F000FBD0B90521184810F0FBFAD0B966
:10A270004FF0A0430322C3F86C274FF00062C3F8ED
:10A280000C2505B05DF804FB114AE721FFF74CFBF4
:10A29000DFE70F4AEA21FFF747FBDFE70C4AED2132
:10A2A000FFF742FBDFE70A4AF021FFF73DFBDFE75C
:10A2B000F47F0400AC7F04004C40040078400400AC
:10A2C00099A10200E4400400C03D0020CA3D0020E6
:10A2D000843F040000B585B010220021684616F0C6
:10A2E00013FE0023009301228DF8042002936423BF
:10A2F0008DF80C3002238DF80D308DF80E308DF86E
:10A300000F306946114804F06EFD80B9104A0121F2
:10A3100010480EF03FFE78B90F4A00210F480EF0AA
:10A3200039FE70B9FFF77AFF05B05DF804FB0C4AFF
:10A330002F21FFF7F9FAE9E7094A3521FFF7F4FA87
:10A34000EAE7074A3A21FFF7EFFAEBE7AC3D0020D6
:10A3500065A00200EC40040031A00200E8400400C7
:10A36000843F040008B500224FF4702104480EF029
:10A3700025FE00B908BD034A4421FFF7D5FAF9E7E5
:10A38000902B0020843F040008B508480EF045FEDD
:10A3900007480EF042FE10F0F1FA10F0A3FB4FF068
:10A3A000A0434FF00062C3F80C2508BD902B00209D
:10A3B000702B002008B5034A4FF4B171FFF7B4FACF
:10A3C00008BD00BFF04004008379022B00D0704725
:10A3D00000B585B000238DF80F30C17911B105B0FB
:10A3E0005DF804FB0DF10F0301930A4B5B880093AA
:10A3F00000230122084805F0F1FD20B99DF80F2047
:10A40000064B1A70EBE7064A4FF49971FFF78CFA86
:10A41000F4E700BF402D0020B02B0020582B002077
:10A42000F040040008B50B78052B04D0062B06D0AD
:10A43000042B08D008BD064B01221A70FAE7044B22
:10A4400000221A70F6E70846FFF7BEFFF2E700BFEA
:10A450003450002008B50248FCF7CAFA08BD00BF16
:10A46000D43D00202DE9F04182B006460D469046CD
:10A470001F46184C184AA41AE40824040A4617492F
:10A4800044F003000DF02AFE154B1B782BB1BDB133
:10A490000025284602B0BDE8F081124B5B8800938E
:10A4A00043463A462946304605F0ECFC0546002D69
:10A4B000EFD02A460C4944F002000DF08BFDE8E78E
:10A4C000084B5B8842463946304605F041FD05465B
:10A4D000EDE700BFF47F0400AC7F04001C410400E2
:10A4E00034500020402D00203C41040010B50446AB
:10A4F0000D48FCF764FAA0B91CB90B48FCF778FAD0
:10A5000010E00948FCF7ADFA024612F8041B837804
:10A510000648FFF7A7FF044620B90348FCF7B0FA46
:10A5200000E00524204610BDD43D0020B02B0020C3
:10A5300070B58AB00D4616461C460B48FCF74AFA21
:10A5400010B104200AB070BD2246314602A816F0B0
:10A55000CDFCADF80450ADF8064001A90248FCF767
:10A5600056FA0020EEE700BFD43D00202DE9F0436D
:10A5700093B028220021414816F0C6FC0822002191
:10A580003F4816F0C1FC082200213E4816F0BCFCF2
:10A590000022042A13DC3C4901EB42035878374B74
:10A5A00023F8320011F8121003EBC2039970012155
:10A5B000D97002219971597119710132E9E7304F4F
:10A5C0004FF00108A7F8008087F802800224FC7091
:10A5D0007C713C712B4E34800025B5704FF003091F
:10A5E00086F803903471747148222946684616F043
:10A5F0008BFC264B0093264B01938DF808808DF839
:10A60000095005238DF80A301C4B03938DF81080F8
:10A6100005978DF818800796BE23ADF824301D4BA2
:10A62000089340F20113ADF830308DF832508DF8B8
:10A6300033908DF836500E958DF82C408DF83440BF
:10A640008DF844408DF842408DF845408DF84640E5
:10A650008DF83C408DF83D408DF83E4069460E48EF
:10A6600005F074FB20B9FFF7F5FE13B0BDE8F083E9
:10A670000A4A8221FFF758F9F5E700BFE44F0020AE
:10A6800038500020DC4F00202C42040025A402009A
:10A69000B5A302006C410400B02B0020F040040080
:10A6A0007047704708B5FFF721FF08BDF8B50246AF
:10A6B000052820D80E46421ED4B2184B03EB4403A3
:10A6C0005F783B460A4621461548FFF7CBFE054614
:10A6D00013281BD0CDB1082D17D0132D15D0112D57
:10A6E00013D043F201439D420FD00E4AAE212846BB
:10A6F000FFF71AF909E00C480C4BC01AC008000417
:10A700000B4940F002000DF065FCF8BD3B463246B7
:10A7100021460348FFF70CFFDCE700BF2C42040092
:10A72000B02B0020F0400400F47F0400AC7F040054
:10A730005441040078DF70477ADF70477CDF704750
:10A7400008B5024AF421FFF7EFF808BD38420400CB
:10A7500008B5034A4FF49271FFF7E6F808BD00BF51
:10A760003842040010B584B09DF80430012262F331
:10A77000030362F307138DF804301A4C204616F0D9
:10A780002BFC82B2214601A8FFF7D8FFD8B940F2CE
:10A79000C130FFF7CFFFD8B9082200210DEB02002E
:10A7A00016F0B2FB0623ADF808301822ADF80A20E7
:10A7B000ADF80C306423ADF80E3002A8FFF7BCFFF3
:10A7C00058B904B010BD084ACE21FFF7ADF8DEE756
:10A7D000054AD121FFF7A8F8DEE7034ADB21FFF79E
:10A7E000A3F8EEE7604204003842040008B50021F7
:10A7F000044806F04FFF00B908BD034AE421FFF703
:10A8000093F8F9E7405000203842040000B583B0C7
:10A81000074B019301A9074807F01AF810B903B0D4
:10A820005DF804FB044A4FF48171FFF77DF8F6E709
:10A8300041A70200545000203842040010B592B0E5
:10A8400002248DF8004044F65853ADF802304BF620
:10A850006063ADF804300123ADF8063040220021DA
:10A8600002A816F051FB0A4902A806F09FFACDF89B
:10A8700040D08DF8444002A804F0C2FB08B912B0E1
:10A8800010BD044A40F21B11FFF74EF8F7E700BF76
:10A89000704204003842040000B589B01C22002137
:10A8A00001A816F031FB002301934FF4A03202926D
:10A8B0004FF4F022039203228DF81020ADF81230ED
:10A8C0008DF814300693074B079301A806F056F84D
:10A8D00010B909B05DF804FB034A40F23B11FFF7E1
:10A8E00023F8F6E751A702003842040000B583B010
:10A8F00009F082F860BB05220021684616F004FBCF
:10A900009DF8003043F0010303F0F103032262F3EA
:10A9100006136FF3C7138DF8003007238DF801304D
:10A9200010238DF802309DF8033013438DF8033067
:10A930009DF8043013438DF80430684609F014F98B
:10A9400060B90C4809F0F6F870B903B05DF804FB83
:10A95000094A4FF4A371FEF7E7FFCCE7064A40F23D
:10A960005911FEF7E1FFECE7034A4FF4AE71FEF731
:10A97000DBFFEAE751AA02003842040008B5FFF7FE
:10A98000F1FEFFF733FFFFF74BFAFFF73FFFFFF74B
:10A9900055FFFFF79FFCFFF7E9FDFFF77DFFFFF78E
:10A9A000A5FF08BD08B5FFF797FAFFF7DBFCFFF737
:10A9B00077FE08BD08B5FFF774FEFFF7E5FCFFF76B
:10A9C00011FB08BD00B587B00346082201924FF67F
:10A9D000FF7201A902A809F045F9C0B91748184B40
:10A9E000C01AC00800040823019A164940F0030069
:10A9F0000DF074FB144B9B88019A93420CD30021F9
:10AA0000084609F0D3F8A0B907B05DF804FB0F4A77
:10AA10004721FEF789FFE1E706AA02EB430333F87B
:10AA2000103CADF8023001210DF1020009F0BEF832
:10AA3000E9E7064A5721FEF777FFE5E7F47F0400D0
:10AA4000AC7F040078420400402D0020384204000E
:10AA500010B582B0044609F0F7FE204609F092FCDA
:10AA60002378033B0A2B0AD8DFE803F00609240900
:10AA700009090F0909090B00A288124B1A8002B0BC
:10AA800010BD0020FFF728FAF9E7237C13F0010F2F
:10AA9000F5D0237A072BF2D10B480C4BC01AC00813
:10AAA00000040B4940F003000DF022FA0120FFF7EB
:10AAB00089FFE4E701238DF8043001A9608809F0DB
:10AAC0006FF8DCE7402D0020F47F0400AC7F040029
:10AAD000A842040000B587B00346082201924FF651
:10AAE000FF7201A902A809F0BDF860B9114B9B885B
:10AAF000019A93420CD30021084609F07BF8A0B9D3
:10AB000007B05DF804FB0C4A6521FEF70DFFEDE789
:10AB100006AA02EB430333F8103CADF802300121E2
:10AB20000DF1020009F066F8E9E7034A7221FEF729
:10AB3000FBFEE5E7402D00203842040008B5094837
:10AB4000094BC01AC0080004084940F003000DF08A
:10AB5000CFF909F057F900B908BD054A7E21FEF783
:10AB6000E3FEF9E7F47F0400AC7F0400DC4204005C
:10AB70003842040008B5064B5988064806F07CFEAA
:10AB800000B908BD044A8A21FEF7CEFEF9E700BFEE
:10AB9000402D0020545000203842040076DF7047DA
:10ABA00088DF704789DF70478FDF704708B5FFF790
:10ABB00001FF08BD08B5FFF779FD08BD00B583B0FA
:10ABC0000EF0ECFE68B90023019301A901200EF0FC
:10ABD000E7FF58B901A80FF0BFF860B903B05DF8FE
:10ABE00004FB074A7821FEF79FFEECE7044A7E212A
:10ABF000FEF79AFEEEE7024A8221FEF795FEEDE7A8
:10AC0000EC42040030B585B004460388212B0FD8F0
:10AC1000102B3FD3103B112B3CD8DFE803F0273D2E
:10AC20003B3B3B3B3B3B3B3B3B3B943B3B3B3B65F1
:10AC3000562B73D0572B03D10120FFF733FD29E0AA
:10AC40003B2B27D14648474BC01AC0080004464951
:10AC500040F004000DF04CF91321A088FFF79EFF8F
:10AC6000C0B1424A5921FEF75FFE13E03C483D4B1C
:10AC7000C01AC00800043E4940F003000DF038F946
:10AC8000A0883C4C608005221146FFF789FF608850
:10AC9000FFF770FF05B030BD314D324BED1AED08B6
:10ACA0002D0445F003054FF08043D3F81835009389
:10ACB000037A8288304928460DF098FA0020FFF781
:10ACC000F1FC2C4C6088FFF76DFF4FF6FF7363803B
:10ACD000A379002BDED00022A271FFF72DF92749BE
:10ACE00028460DF005F9D5E71D481E4BC01AC008CF
:10ACF0000004234940F004000DF0FAF800238DF819
:10AD00000C308DF80D3003A9A088FFF74DFF002807
:10AD1000C0D0164A4B21FEF707FEBBE71048114B87
:10AD2000C01AC0080004174940F004000DF0E0F814
:10AD30001321A088FFF732FF0028ABD00B4A612116
:10AD4000FEF7F2FDA6E70648064BC01AC00800044D
:10AD500094F908200C4940F003000DF03BF999E705
:10AD6000F47F0400AC7F040078430400EC4204004C
:10AD700010430400402D00201C43040050430400F5
:10AD80006443040090430400A843040008B5FFF79F
:10AD900015FFFEF721FDFFF7F1FD0849084800F017
:10ADA000E1FCFBF731FD80B2064B9880032800D808
:10ADB00008BD00209880FBF732FDF9E7ADAB02003B
:10ADC000B5AB0200402D002008B5FFF7EBFD00F009
:10ADD000FBFC08BD08B512F0D7F912F0CFF9002836
:10ADE000FBD10F4B0220C3F88000BFF34F8FBFF39E
:10ADF0006F8F4FF48061C3F88010BFF34F8FBFF3A4
:10AE00006F8F4FF48012C3F88020BFF34F8FBFF3D2
:10AE10006F8FC3F88001C3F88011C3F8802108BD8B
:10AE200000E100E038B5274B1B78ABB90446082A8F
:10AE300013D8254BFF205870022C23D018D8012C92
:10AE400026D1214D284616F051F86C7008221E4973
:10AE5000002012F0A5F938B338BD1C481C4BC01AAD
:10AE6000C00800041B4940F002000DF0B3F8F3E7FE
:10AE7000E31EDBB2012B0BD8134DA81C16F036F8DD
:10AE80006C70E3E7104DA81C16F030F86C70DDE72D
:10AE90000E480F4BC01AC008000422460E4940F06D
:10AEA00003000DF097F8D7E7084C094BE41AE408C3
:10AEB000240412F04DFA0246084944F001000DF056
:10AEC00089F8C9E7605000206C500020F47F04002E
:10AED000AC7F0400BC430400DC430400FC430400DA
:10AEE000154B1B7803B1704710B5002012F0ECF938
:10AEF00050B91248124BC01AC0080004114940F062
:10AF000003000CF0F5FF10BD0F49FF234B70082222
:10AF1000002012F045F90028EBD1084C084BE41A48
:10AF2000E408240412F014FA0246084944F001002F
:10AF30000DF050F8DDE700BF60500020F47F040002
:10AF4000AC7F040050440400645000202C440400F2
:10AF500008B5344B187008220021334815F0D4FF8F
:10AF600008220021314815F0CFFF11F0B7F970B376
:10AF7000002011F0E1F92B4B1B78002B39D02C4825
:10AF80002C4BC01AC00800042B4940F003000CF001
:10AF9000AFFF012012F044F810B3642012F0D6F98C
:10AFA000264812F0AFF9264812F0BEF9FEF714FC5D
:10AFB0001F48204BC01AC0080004224940F003007B
:10AFC0000CF096FF2049214800F0CCFB08BD11F0A1
:10AFD0008BF90028CCD01E4A2021FEF7A5FCC7E73C
:10AFE00012F0B6F91A4A262100F50340FEF79CFC40
:10AFF000D3E70F480F4BC01AC0080004154940F0B2
:10B0000003000CF075FF002012F00AF80028C4D1EC
:10B0100012F09EF90E4A292100F50340FEF784FC48
:10B02000BBE700BF605000206C500020645000203F
:10B03000F47F0400AC7F040090440400584D584D48
:10B0400026542654B8440400D5AD020025AE0200B3
:10B050006C440400A444040008B512F073F820B155
:10B06000FFF73EFF00F0B0FB08BD12F071F9034A94
:10B070003A2100F50340FEF757FCF1E76C44040069
:10B080007047000070B58CB005466B4683E806003B
:10B0900020230393134C144BE41AE408240444F0D3
:10B0A0000306124930460CF023FF9DF800300BB91F
:10B0B0000CB070BD03AA04A9284612F0CBF840B921
:10B0C00012F046F902460A4944F001000CF082FFF2
:10B0D000EEE79DF81120074B1A70074930460CF037
:10B0E00079FFE5E7F47F0400AC7F0400D44404005A
:10B0F000E4440400582B00201045040030B58DB006
:10B1000005466B4683E8060020230393174C184B33
:10B11000E41AE40824040246164944F003000CF043
:10B1200059FF9DF800303BB908221349284612F018
:10B1300037F888B10DB030BD03AA04A9284612F033
:10B1400089F80028F0D112F003F902460B4944F0C7
:10B1500001000CF03FFFE7E712F0FAF80246084959
:10B1600044F001000CF036FFE4E700BFF47F040078
:10B17000AC7F0400204504006C500020E44404002F
:10B180003C450400414B1B7803B9704770B58EB045
:10B1900005463F4C3F4BE41AE408240444F0030600
:10B1A0003D4930460CF0A4FE2023059305AA06A9CC
:10B1B000284612F04FF880B1059B012B18D99DF855
:10B1C0001920042A12D853B2002B50D0531E032B3F
:10B1D0004DD8DFE803F01A28344012F0B9F80246DF
:10B1E0002E4944F001000CF0F5FEE5E7FF2A3ED1C0
:10B1F0002B4B5B788DF81930059A06A9284611F07B
:10B20000CFFF002838D00EB070BD00238DF8193064
:10B21000082206A903A815F069FE082203A9012047
:10B2200000F0DCFEE4E705220DF11A0103A815F099
:10B230005DFE052203A9022000F0D0FED8E702221D
:10B240000DF11A0103A815F051FE022203A90320F3
:10B2500000F0C4FECCE702220DF11A0103A815F09C
:10B2600045FE022203A9042000F0B8FEC0E70D4904
:10B2700030460CF0AFFEBBE712F06AF802460A490E
:10B2800044F001000CF0A6FEBDE700BF60500020B6
:10B29000F47F0400AC7F040070450400884504007E
:10B2A000582B0020A0450400C4450400BFF34F8F75
:10B2B0000549CA6802F4E062044B1343CB60BFF354
:10B2C0004F8F00BFFDE700BF00ED00E00400FA056E
:10B2D0003CDF7047064B187910F0010F03D110F0D6
:10B2E000020002D1704718787047014B5878F9E78F
:10B2F000582B0020074A137992F90420002A00DB1A
:10B300007047044A0121D17003F0FE0343F00203A9
:10B310001371F5E7582B0020044A0023D3701379EA
:10B3200003F0FD0343F0010313717047582B002015
:10B3300070477047014B5870704700BF582B002072
:10B3400000B583B00246ADF80600124B12481B1A36
:10B35000DB081B04114943F003000CF03BFE104BCB
:10B360001B7913F0010F06D00E4B1B6802220DF162
:10B370000601042098470A4B1B7913F0020F02D1F3
:10B3800003B05DF804FB02220DF10601042000F079
:10B3900025FEF5E7F47F0400AC7F0400DC450400E3
:10B3A000582B00207850002000B583B00246ADF83D
:10B3B0000600124B12481B1ADB081B04114943F00C
:10B3C00003000CF007FE104B1B7913F0010F06D0A1
:10B3D0000E4B1B6802220DF10601032098470A4B11
:10B3E0001B7913F0020F02D103B05DF804FB0222B7
:10B3F0000DF10601032000F0F1FDF5E7F47F0400F4
:10B40000AC7F0400F0450400582B00207850002049
:10B4100010B504460B4B1B7913F0010F05D00A4BF6
:10B420001B680822014601209847064B1B7913F040
:10B43000020F00D110BD08222146012000F0CEFDF0
:10B44000F8E700BF582B00207850002010B50446C4
:10B45000104B11481B1ADB081B04104943F0030072
:10B460000CF046FD0E4B1B7913F0010F05D00D4B70
:10B470001B680522214602209847094B1B7913F0CF
:10B48000020F00D110BD05222146022000F0A6FDCA
:10B49000F8E700BFF47F0400AC7F0400004604001E
:10B4A000582B00207850002008B50548054BC01ADD
:10B4B000C0080004044940F002000CF019FD08BD6A
:10B4C000F47F0400AC7F04001446040000B585B08E
:10B4D00010F004FFE0B11C4A01AB07CA83E8070083
:10B4E0001A49184610F0F2FD10BB194810F02AFE58
:10B4F00020BB10F019FE1748174BC01AC0080004F3
:10B50000164940F003000CF0F3FC05B05DF804FBB5
:10B5100010F0EAFE30B910F099FF0028DBD110F0EE
:10B520000BFFD8E70E4A4FF4E071FEF7FDF9F2E7A2
:10B530000B4A4FF4E471FEF7F7F9D6E7084A4FF4E7
:10B54000E571FEF7F1F9D4E7DC470400A9B4020085
:10B550007C500020F47F0400AC7F040050460400BF
:10B560002C46040008B5064A012106480DF012FDDC
:10B5700000B908BD044A9321FEF7D6F9F9E700BFE8
:10B580009DB50200E84704002C46040008B5024BB4
:10B59000187810F001FE08BD7C50002008B5FFF7B8
:10B5A000F5FF00F09DFEFDF783FE2F4BDB7823B106
:10B5B0002D4B93F90430002B07DB2B4B5B792BB120
:10B5C000294B0022DA609A605A7108BDFDF75EFED1
:10B5D000002840D1244BDA680132DA60234BA3FB08
:10B5E0000213DB0941F2707101FB1323B3B11E4B4F
:10B5F0009B68092BE9D91C4B1B7913F0400F1CD019
:10B600001B481C4BC01AC00800041B4940F0030033
:10B610000CF06EFC00200DF0F9F9D6E7124B9A6899
:10B6200001329A601248134BC01AC0080004134933
:10B6300040F003000CF0CEFCD9E70D480D4BC01ACA
:10B64000C00800040E4940F003000CF051FC064B0A
:10B6500000229A60B9E7044B9B79142BB5D80020DF
:10B66000FDF766FEB1E700BF582B0020F119760503
:10B67000F47F0400AC7F0400784604005C460400BC
:10B68000A446040008B50022A4210A480DF096FC47
:10B6900050B90948094BC01AC0080004084940F0D5
:10B6A00003000CF025FC08BD064A9A21FEF73CF980
:10B6B000EFE700BF602D0020F47F0400AC7F0400A2
:10B6C000CC4604002C46040008B50A480DF0A5FC41
:10B6D00050B90948094BC01AC0080004084940F095
:10B6E00003000CF005FC08BD064AA321FEF71CF977
:10B6F000EFE700BF602D0020F47F0400AC7F040062
:10B70000E44604002C460400114B9B78FBB170B555
:10B71000044685B20F4B9B889D4200D170BD08F056
:10B7200081FA8442FAD80C480C4BC01AC0080004B5
:10B73000084EB38822460A4940F003000CF0CEFCC4
:10B74000B5802046FBF76BF8FEF7F6FBE6E770479F
:10B75000582B0020402D0020F47F0400AC7F040013
:10B76000FC46040008B5114B1860114B196000F03D
:10B77000ADFD00F0AFFD0F4800F0FCFBFBF7D0F88B
:10B780000D4800F0FDFCFFF7A1FEFFF7EBFEFAF716
:10B79000C9FF0A480A4BC01AC0080004094940F012
:10B7A00003000CF0A5FBFBF7F3F808BD7850002070
:10B7B00074500020802D0020482D0020F47F0400CC
:10B7C000AC7F04002C47040008B5FFF75BFF024B79
:10B7D0000022DA6008BD00BF582B002008B50D48D4
:10B7E0000D4BC01AC00800040C4940F003000CF0D7
:10B7F0007FFBFFF769FF0DF039FC094B1B68984789
:10B80000FDF78AFEFAF79FFD00F06EFC00F024F9C8
:10B8100008BD00BFF47F0400AC7F04004047040073
:10B820007450002008B5FFF7D9FF012008BD0020A3
:10B830007047000030B585B00346006801909A88D3
:10B84000ADF80820BDF808204AB1BDF804104FF645
:10B85000FF72914201D0002202E0012200E00122A9
:10B860001546002A40F0B8809C78002C00F0B58086
:10B870001868998801F036FEADF80C00C0F3072374
:10B8800013F0F00302D0102B40F0AA809DF80C308A
:10B890006A3B092B00F29B80DFE803F005090D11DC
:10B8A0009999154C5C690020FFF72EFF95E0012067
:10B8B000FFF72AFF91E00220FFF726FF8DE003202B
:10B8C000FFF722FF89E0474B1B7913F0010F1FD0D0
:10B8D000444BDB788BB14448444BC01AC008000489
:10B8E000434940F003000CF003FB3E4A137903F098
:10B8F000FE0343F0020313716FE03B483B4BC01A59
:10B90000C00800043B4940F003000CF0F1FA64E089
:10B910003548364BC01AC0080004374940F00300D0
:10B920000CF0E6FA2F4A137903F0FD0343F001030C
:10B93000137152E02C482D4BC01AC00800042F4947
:10B9400040F003000CF0D4FA02210020FFF7C0FC05
:10B95000FFF7ACFC2448254BC01AC0080004284956
:10B9600040F003000CF0C4FA00F0D0FB35E01D4BB2
:10B970009B78C3B11C481D4BC01AC0080004214964
:10B9800040F003000CF0B4FA08210020FFF7A0FCFF
:10B990000EF048F808B9FFF789FC1B4A4FF4D6713E
:10B9A000FDF7C2FFF7E71048104BC01AC0080004AB
:10B9B000164940F003000CF09BFA4FF08042D2F899
:10B9C0001C3523F00803C2F81C35FFF76FFC03A8F1
:10B9D000FFF72DFF044600E00024204605B030BDEF
:10B9E0002C46FAE7582B0020F47F0400AC7F0400BB
:10B9F0005C4704007047040094470400A847040013
:10BA0000DC4A0400BC4704002C460400CC47040078
:10BA1000002307E0064A002142F8331002EBC3027C
:10BA200051600133072BF5DD014B00221A6470478A
:10BA300080500020074B1B6C072B01D90120704759
:10BA4000044A42F8330002EBC3004160013313643F
:10BA5000002070478050002010B50024064B1B6C5E
:10BA6000A34208D9044B53F8342003EBC4035868AD
:10BA700090470134F2E710BD8050002010B4044616
:10BA8000002318468B4204D2E25C1044C0B201335A
:10BA9000F8E75DF8044B704710B58AB0204B5B7D2A
:10BAA000002B2DD11F4C204BE41AE408240444F051
:10BAB0000304132314221D4920460CF00FFB00231E
:10BAC0000693079308931323049314230593184BA9
:10BAD0000993184B009380230193174A0292039312
